{
  "_format": "hh-sol-artifact-1",
  "contractName": "Rep",
  "sourceName": "contracts/Rep.sol",
  "abi": [
    {
      "inputs": [
        {
          "internalType": "address",
          "name": "addr",
          "type": "address"
        }
      ],
      "stateMutability": "nonpayable",
      "type": "constructor"
    },
    {
      "anonymous": false,
      "inputs": [
        {
          "indexed": true,
          "internalType": "address",
          "name": "owner",
          "type": "address"
        },
        {
          "indexed": true,
          "internalType": "address",
          "name": "spender",
          "type": "address"
        },
        {
          "indexed": false,
          "internalType": "uint256",
          "name": "value",
          "type": "uint256"
        }
      ],
      "name": "Approval",
      "type": "event"
    },
    {
      "anonymous": false,
      "inputs": [
        {
          "indexed": true,
          "internalType": "bytes32",
          "name": "role",
          "type": "bytes32"
        },
        {
          "indexed": true,
          "internalType": "bytes32",
          "name": "previousAdminRole",
          "type": "bytes32"
        },
        {
          "indexed": true,
          "internalType": "bytes32",
          "name": "newAdminRole",
          "type": "bytes32"
        }
      ],
      "name": "RoleAdminChanged",
      "type": "event"
    },
    {
      "anonymous": false,
      "inputs": [
        {
          "indexed": true,
          "internalType": "bytes32",
          "name": "role",
          "type": "bytes32"
        },
        {
          "indexed": true,
          "internalType": "address",
          "name": "account",
          "type": "address"
        },
        {
          "indexed": true,
          "internalType": "address",
          "name": "sender",
          "type": "address"
        }
      ],
      "name": "RoleGranted",
      "type": "event"
    },
    {
      "anonymous": false,
      "inputs": [
        {
          "indexed": true,
          "internalType": "bytes32",
          "name": "role",
          "type": "bytes32"
        },
        {
          "indexed": true,
          "internalType": "address",
          "name": "account",
          "type": "address"
        },
        {
          "indexed": true,
          "internalType": "address",
          "name": "sender",
          "type": "address"
        }
      ],
      "name": "RoleRevoked",
      "type": "event"
    },
    {
      "anonymous": false,
      "inputs": [
        {
          "indexed": true,
          "internalType": "address",
          "name": "from",
          "type": "address"
        },
        {
          "indexed": true,
          "internalType": "address",
          "name": "to",
          "type": "address"
        },
        {
          "indexed": false,
          "internalType": "uint256",
          "name": "value",
          "type": "uint256"
        }
      ],
      "name": "Transfer",
      "type": "event"
    },
    {
      "inputs": [],
      "name": "DEFAULT_ADMIN_ROLE",
      "outputs": [
        {
          "internalType": "bytes32",
          "name": "",
          "type": "bytes32"
        }
      ],
      "stateMutability": "view",
      "type": "function"
    },
    {
      "inputs": [
        {
          "internalType": "address",
          "name": "owner",
          "type": "address"
        },
        {
          "internalType": "address",
          "name": "spender",
          "type": "address"
        }
      ],
      "name": "allowance",
      "outputs": [
        {
          "internalType": "uint256",
          "name": "",
          "type": "uint256"
        }
      ],
      "stateMutability": "view",
      "type": "function"
    },
    {
      "inputs": [
        {
          "internalType": "address",
          "name": "spender",
          "type": "address"
        },
        {
          "internalType": "uint256",
          "name": "amount",
          "type": "uint256"
        }
      ],
      "name": "approve",
      "outputs": [
        {
          "internalType": "bool",
          "name": "",
          "type": "bool"
        }
      ],
      "stateMutability": "nonpayable",
      "type": "function"
    },
    {
      "inputs": [
        {
          "internalType": "address",
          "name": "account",
          "type": "address"
        }
      ],
      "name": "balanceOf",
      "outputs": [
        {
          "internalType": "uint256",
          "name": "",
          "type": "uint256"
        }
      ],
      "stateMutability": "view",
      "type": "function"
    },
    {
      "inputs": [],
      "name": "decimals",
      "outputs": [
        {
          "internalType": "uint8",
          "name": "",
          "type": "uint8"
        }
      ],
      "stateMutability": "view",
      "type": "function"
    },
    {
      "inputs": [
        {
          "internalType": "address",
          "name": "spender",
          "type": "address"
        },
        {
          "internalType": "uint256",
          "name": "subtractedValue",
          "type": "uint256"
        }
      ],
      "name": "decreaseAllowance",
      "outputs": [
        {
          "internalType": "bool",
          "name": "",
          "type": "bool"
        }
      ],
      "stateMutability": "nonpayable",
      "type": "function"
    },
    {
      "inputs": [
        {
          "internalType": "bytes32",
          "name": "role",
          "type": "bytes32"
        }
      ],
      "name": "getRoleAdmin",
      "outputs": [
        {
          "internalType": "bytes32",
          "name": "",
          "type": "bytes32"
        }
      ],
      "stateMutability": "view",
      "type": "function"
    },
    {
      "inputs": [
        {
          "internalType": "bytes32",
          "name": "role",
          "type": "bytes32"
        },
        {
          "internalType": "address",
          "name": "account",
          "type": "address"
        }
      ],
      "name": "grantRole",
      "outputs": [],
      "stateMutability": "nonpayable",
      "type": "function"
    },
    {
      "inputs": [
        {
          "internalType": "bytes32",
          "name": "role",
          "type": "bytes32"
        },
        {
          "internalType": "address",
          "name": "account",
          "type": "address"
        }
      ],
      "name": "hasRole",
      "outputs": [
        {
          "internalType": "bool",
          "name": "",
          "type": "bool"
        }
      ],
      "stateMutability": "view",
      "type": "function"
    },
    {
      "inputs": [
        {
          "internalType": "address",
          "name": "spender",
          "type": "address"
        },
        {
          "internalType": "uint256",
          "name": "addedValue",
          "type": "uint256"
        }
      ],
      "name": "increaseAllowance",
      "outputs": [
        {
          "internalType": "bool",
          "name": "",
          "type": "bool"
        }
      ],
      "stateMutability": "nonpayable",
      "type": "function"
    },
    {
      "inputs": [
        {
          "internalType": "uint256",
          "name": "numOfTokens",
          "type": "uint256"
        }
      ],
      "name": "mint",
      "outputs": [],
      "stateMutability": "nonpayable",
      "type": "function"
    },
    {
      "inputs": [],
      "name": "name",
      "outputs": [
        {
          "internalType": "string",
          "name": "",
          "type": "string"
        }
      ],
      "stateMutability": "view",
      "type": "function"
    },
    {
      "inputs": [
        {
          "internalType": "bytes32",
          "name": "role",
          "type": "bytes32"
        },
        {
          "internalType": "address",
          "name": "account",
          "type": "address"
        }
      ],
      "name": "renounceRole",
      "outputs": [],
      "stateMutability": "nonpayable",
      "type": "function"
    },
    {
      "inputs": [
        {
          "internalType": "bytes32",
          "name": "role",
          "type": "bytes32"
        },
        {
          "internalType": "address",
          "name": "account",
          "type": "address"
        }
      ],
      "name": "revokeRole",
      "outputs": [],
      "stateMutability": "nonpayable",
      "type": "function"
    },
    {
      "inputs": [
        {
          "internalType": "bytes4",
          "name": "interfaceId",
          "type": "bytes4"
        }
      ],
      "name": "supportsInterface",
      "outputs": [
        {
          "internalType": "bool",
          "name": "",
          "type": "bool"
        }
      ],
      "stateMutability": "view",
      "type": "function"
    },
    {
      "inputs": [],
      "name": "symbol",
      "outputs": [
        {
          "internalType": "string",
          "name": "",
          "type": "string"
        }
      ],
      "stateMutability": "view",
      "type": "function"
    },
    {
      "inputs": [],
      "name": "totalSupply",
      "outputs": [
        {
          "internalType": "uint256",
          "name": "",
          "type": "uint256"
        }
      ],
      "stateMutability": "view",
      "type": "function"
    },
    {
      "inputs": [
        {
          "internalType": "address",
          "name": "to",
          "type": "address"
        },
        {
          "internalType": "uint256",
          "name": "amount",
          "type": "uint256"
        }
      ],
      "name": "transfer",
      "outputs": [
        {
          "internalType": "bool",
          "name": "",
          "type": "bool"
        }
      ],
      "stateMutability": "nonpayable",
      "type": "function"
    },
    {
      "inputs": [
        {
          "internalType": "address",
          "name": "from",
          "type": "address"
        },
        {
          "internalType": "address",
          "name": "to",
          "type": "address"
        },
        {
          "internalType": "uint256",
          "name": "amount",
          "type": "uint256"
        }
      ],
      "name": "transferFrom",
      "outputs": [
        {
          "internalType": "bool",
          "name": "",
          "type": "bool"
        }
      ],
      "stateMutability": "nonpayable",
      "type": "function"
    },
    {
      "inputs": [],
      "name": "transferFromMultisig",
      "outputs": [],
      "stateMutability": "nonpayable",
      "type": "function"
    }
  ],
  "bytecode": "0x60806040523480156200001157600080fd5b506040516200277b3803806200277b83398181016040528101906200003791906200013a565b6040518060400160405280600881526020017f526570546f6b656e0000000000000000000000000000000000000000000000008152506040518060400160405280600381526020017f52657000000000000000000000000000000000000000000000000000000000008152508160039081620000b49190620003e6565b508060049081620000c69190620003e6565b50505050620004cd565b600080fd5b600073ffffffffffffffffffffffffffffffffffffffff82169050919050565b60006200010282620000d5565b9050919050565b6200011481620000f5565b81146200012057600080fd5b50565b600081519050620001348162000109565b92915050565b600060208284031215620001535762000152620000d0565b5b6000620001638482850162000123565b91505092915050565b600081519050919050565b7f4e487b7100000000000000000000000000000000000000000000000000000000600052604160045260246000fd5b7f4e487b7100000000000000000000000000000000000000000000000000000000600052602260045260246000fd5b60006002820490506001821680620001ee57607f821691505b602082108103620002045762000203620001a6565b5b50919050565b60008190508160005260206000209050919050565b60006020601f8301049050919050565b600082821b905092915050565b6000600883026200026e7fffffffffffffffffffffffffffffffffffffffffffffffffffffffffffffffff826200022f565b6200027a86836200022f565b95508019841693508086168417925050509392505050565b6000819050919050565b6000819050919050565b6000620002c7620002c1620002bb8462000292565b6200029c565b62000292565b9050919050565b6000819050919050565b620002e383620002a6565b620002fb620002f282620002ce565b8484546200023c565b825550505050565b600090565b6200031262000303565b6200031f818484620002d8565b505050565b5b8181101562000347576200033b60008262000308565b60018101905062000325565b5050565b601f821115620003965762000360816200020a565b6200036b846200021f565b810160208510156200037b578190505b620003936200038a856200021f565b83018262000324565b50505b505050565b600082821c905092915050565b6000620003bb600019846008026200039b565b1980831691505092915050565b6000620003d68383620003a8565b9150826002028217905092915050565b620003f1826200016c565b67ffffffffffffffff8111156200040d576200040c62000177565b5b620004198254620001d5565b620004268282856200034b565b600060209050601f8311600181146200045e576000841562000449578287015190505b620004558582620003c8565b865550620004c5565b601f1984166200046e866200020a565b60005b82811015620004985784890151825560018201915060208501945060208101905062000471565b86831015620004b85784890151620004b4601f891682620003a8565b8355505b6001600288020188555050505b505050505050565b61229e80620004dd6000396000f3fe608060405234801561001057600080fd5b506004361061012c5760003560e01c806370a08231116100ad578063a457c2d711610071578063a457c2d71461036b578063a9059cbb1461039b578063d547741f146103cb578063dd62ed3e146103e7578063f0fe0ffe146104175761012c565b806370a08231146102b357806391d14854146102e357806395d89b4114610313578063a0712d6814610331578063a217fddf1461034d5761012c565b8063248a9ca3116100f4578063248a9ca3146101fd5780632f2ff15d1461022d578063313ce5671461024957806336568abe1461026757806339509351146102835761012c565b806301ffc9a71461013157806306fdde0314610161578063095ea7b31461017f57806318160ddd146101af57806323b872dd146101cd575b600080fd5b61014b6004803603810190610146919061150a565b610421565b6040516101589190611552565b60405180910390f35b61016961049b565b60405161017691906115fd565b60405180910390f35b610199600480360381019061019491906116b3565b61052d565b6040516101a69190611552565b60405180910390f35b6101b7610550565b6040516101c49190611702565b60405180910390f35b6101e760048036038101906101e2919061171d565b61055a565b6040516101f49190611552565b60405180910390f35b610217600480360381019061021291906117a6565b610589565b60405161022491906117e2565b60405180910390f35b610247600480360381019061024291906117fd565b6105a9565b005b6102516105ca565b60405161025e9190611859565b60405180910390f35b610281600480360381019061027c91906117fd565b6105d3565b005b61029d600480360381019061029891906116b3565b610656565b6040516102aa9190611552565b60405180910390f35b6102cd60048036038101906102c89190611874565b61068d565b6040516102da9190611702565b60405180910390f35b6102fd60048036038101906102f891906117fd565b6106d5565b60405161030a9190611552565b60405180910390f35b61031b610740565b60405161032891906115fd565b60405180910390f35b61034b600480360381019061034691906118a1565b6107d2565b005b610355610803565b60405161036291906117e2565b60405180910390f35b610385600480360381019061038091906116b3565b61080a565b6040516103929190611552565b60405180910390f35b6103b560048036038101906103b091906116b3565b610881565b6040516103c29190611552565b60405180910390f35b6103e560048036038101906103e091906117fd565b6108a4565b005b61040160048036038101906103fc91906118ce565b6108c5565b60405161040e9190611702565b60405180910390f35b61041f61094c565b005b60007f7965db0b000000000000000000000000000000000000000000000000000000007bffffffffffffffffffffffffffffffffffffffffffffffffffffffff1916827bffffffffffffffffffffffffffffffffffffffffffffffffffffffff1916148061049457506104938261094e565b5b9050919050565b6060600380546104aa9061193d565b80601f01602080910402602001604051908101604052809291908181526020018280546104d69061193d565b80156105235780601f106104f857610100808354040283529160200191610523565b820191906000526020600020905b81548152906001019060200180831161050657829003601f168201915b5050505050905090565b6000806105386109b8565b90506105458185856109c0565b600191505092915050565b6000600254905090565b6000806105656109b8565b9050610572858285610b89565b61057d858585610c15565b60019150509392505050565b600060056000838152602001908152602001600020600101549050919050565b6105b282610589565b6105bb81610e94565b6105c58383610ea8565b505050565b60006012905090565b6105db6109b8565b73ffffffffffffffffffffffffffffffffffffffff168173ffffffffffffffffffffffffffffffffffffffff1614610648576040517f08c379a000000000000000000000000000000000000000000000000000000000815260040161063f906119e0565b60405180910390fd5b6106528282610f89565b5050565b6000806106616109b8565b905061068281858561067385896108c5565b61067d9190611a2f565b6109c0565b600191505092915050565b60008060008373ffffffffffffffffffffffffffffffffffffffff1673ffffffffffffffffffffffffffffffffffffffff168152602001908152602001600020549050919050565b60006005600084815260200190815260200160002060000160008373ffffffffffffffffffffffffffffffffffffffff1673ffffffffffffffffffffffffffffffffffffffff16815260200190815260200160002060009054906101000a900460ff16905092915050565b60606004805461074f9061193d565b80601f016020809104026020016040519081016040528092919081815260200182805461077b9061193d565b80156107c85780601f1061079d576101008083540402835291602001916107c8565b820191906000526020600020905b8154815290600101906020018083116107ab57829003601f168201915b5050505050905090565b600060129050600081600a6107e79190611b96565b836107f29190611be1565b90506107fe338261106b565b505050565b6000801b81565b6000806108156109b8565b9050600061082382866108c5565b905083811015610868576040517f08c379a000000000000000000000000000000000000000000000000000000000815260040161085f90611c95565b60405180910390fd5b61087582868684036109c0565b60019250505092915050565b60008061088c6109b8565b9050610899818585610c15565b600191505092915050565b6108ad82610589565b6108b681610e94565b6108c08383610f89565b505050565b6000600160008473ffffffffffffffffffffffffffffffffffffffff1673ffffffffffffffffffffffffffffffffffffffff16815260200190815260200160002060008373ffffffffffffffffffffffffffffffffffffffff1673ffffffffffffffffffffffffffffffffffffffff16815260200190815260200160002054905092915050565b565b60007f01ffc9a7000000000000000000000000000000000000000000000000000000007bffffffffffffffffffffffffffffffffffffffffffffffffffffffff1916827bffffffffffffffffffffffffffffffffffffffffffffffffffffffff1916149050919050565b600033905090565b600073ffffffffffffffffffffffffffffffffffffffff168373ffffffffffffffffffffffffffffffffffffffff1603610a2f576040517f08c379a0000000000000000000000000000000000000000000000000000000008152600401610a2690611d27565b60405180910390fd5b600073ffffffffffffffffffffffffffffffffffffffff168273ffffffffffffffffffffffffffffffffffffffff1603610a9e576040517f08c379a0000000000000000000000000000000000000000000000000000000008152600401610a9590611db9565b60405180910390fd5b80600160008573ffffffffffffffffffffffffffffffffffffffff1673ffffffffffffffffffffffffffffffffffffffff16815260200190815260200160002060008473ffffffffffffffffffffffffffffffffffffffff1673ffffffffffffffffffffffffffffffffffffffff168152602001908152602001600020819055508173ffffffffffffffffffffffffffffffffffffffff168373ffffffffffffffffffffffffffffffffffffffff167f8c5be1e5ebec7d5bd14f71427d1e84f3dd0314c0f7b2291e5b200ac8c7c3b92583604051610b7c9190611702565b60405180910390a3505050565b6000610b9584846108c5565b90507fffffffffffffffffffffffffffffffffffffffffffffffffffffffffffffffff8114610c0f5781811015610c01576040517f08c379a0000000000000000000000000000000000000000000000000000000008152600401610bf890611e25565b60405180910390fd5b610c0e84848484036109c0565b5b50505050565b600073ffffffffffffffffffffffffffffffffffffffff168373ffffffffffffffffffffffffffffffffffffffff1603610c84576040517f08c379a0000000000000000000000000000000000000000000000000000000008152600401610c7b90611eb7565b60405180910390fd5b600073ffffffffffffffffffffffffffffffffffffffff168273ffffffffffffffffffffffffffffffffffffffff1603610cf3576040517f08c379a0000000000000000000000000000000000000000000000000000000008152600401610cea90611f49565b60405180910390fd5b610cfe8383836111ca565b60008060008573ffffffffffffffffffffffffffffffffffffffff1673ffffffffffffffffffffffffffffffffffffffff16815260200190815260200160002054905081811015610d84576040517f08c379a0000000000000000000000000000000000000000000000000000000008152600401610d7b90611fdb565b60405180910390fd5b8181036000808673ffffffffffffffffffffffffffffffffffffffff1673ffffffffffffffffffffffffffffffffffffffff16815260200190815260200160002081905550816000808573ffffffffffffffffffffffffffffffffffffffff1673ffffffffffffffffffffffffffffffffffffffff1681526020019081526020016000206000828254610e179190611a2f565b925050819055508273ffffffffffffffffffffffffffffffffffffffff168473ffffffffffffffffffffffffffffffffffffffff167fddf252ad1be2c89b69c2b068fc378daa952ba7f163c4a11628f55a4df523b3ef84604051610e7b9190611702565b60405180910390a3610e8e8484846111cf565b50505050565b610ea581610ea06109b8565b6111d4565b50565b610eb282826106d5565b610f855760016005600084815260200190815260200160002060000160008373ffffffffffffffffffffffffffffffffffffffff1673ffffffffffffffffffffffffffffffffffffffff16815260200190815260200160002060006101000a81548160ff021916908315150217905550610f2a6109b8565b73ffffffffffffffffffffffffffffffffffffffff168173ffffffffffffffffffffffffffffffffffffffff16837f2f8788117e7eff1d82e926ec794901d17c78024a50270940304540a733656f0d60405160405180910390a45b5050565b610f9382826106d5565b156110675760006005600084815260200190815260200160002060000160008373ffffffffffffffffffffffffffffffffffffffff1673ffffffffffffffffffffffffffffffffffffffff16815260200190815260200160002060006101000a81548160ff02191690831515021790555061100c6109b8565b73ffffffffffffffffffffffffffffffffffffffff168173ffffffffffffffffffffffffffffffffffffffff16837ff6391f5c32d9c69d2a47ea670b442974b53935d1edc7fd64eb21e047a839171b60405160405180910390a45b5050565b600073ffffffffffffffffffffffffffffffffffffffff168273ffffffffffffffffffffffffffffffffffffffff16036110da576040517f08c379a00000000000000000000000000000000000000000000000000000000081526004016110d190612047565b60405180910390fd5b6110e6600083836111ca565b80600260008282546110f89190611a2f565b92505081905550806000808473ffffffffffffffffffffffffffffffffffffffff1673ffffffffffffffffffffffffffffffffffffffff168152602001908152602001600020600082825461114d9190611a2f565b925050819055508173ffffffffffffffffffffffffffffffffffffffff16600073ffffffffffffffffffffffffffffffffffffffff167fddf252ad1be2c89b69c2b068fc378daa952ba7f163c4a11628f55a4df523b3ef836040516111b29190611702565b60405180910390a36111c6600083836111cf565b5050565b505050565b505050565b6111de82826106d5565b61126d576112038173ffffffffffffffffffffffffffffffffffffffff166014611271565b6112118360001c6020611271565b60405160200161122292919061213b565b6040516020818303038152906040526040517f08c379a000000000000000000000000000000000000000000000000000000000815260040161126491906115fd565b60405180910390fd5b5050565b6060600060028360026112849190611be1565b61128e9190611a2f565b67ffffffffffffffff8111156112a7576112a6612175565b5b6040519080825280601f01601f1916602001820160405280156112d95781602001600182028036833780820191505090505b5090507f300000000000000000000000000000000000000000000000000000000000000081600081518110611311576113106121a4565b5b60200101907effffffffffffffffffffffffffffffffffffffffffffffffffffffffffffff1916908160001a9053507f780000000000000000000000000000000000000000000000000000000000000081600181518110611375576113746121a4565b5b60200101907effffffffffffffffffffffffffffffffffffffffffffffffffffffffffffff1916908160001a905350600060018460026113b59190611be1565b6113bf9190611a2f565b90505b600181111561145f577f3031323334353637383961626364656600000000000000000000000000000000600f861660108110611401576114006121a4565b5b1a60f81b828281518110611418576114176121a4565b5b60200101907effffffffffffffffffffffffffffffffffffffffffffffffffffffffffffff1916908160001a905350600485901c945080611458906121d3565b90506113c2565b50600084146114a3576040517f08c379a000000000000000000000000000000000000000000000000000000000815260040161149a90612248565b60405180910390fd5b8091505092915050565b600080fd5b60007fffffffff0000000000000000000000000000000000000000000000000000000082169050919050565b6114e7816114b2565b81146114f257600080fd5b50565b600081359050611504816114de565b92915050565b6000602082840312156115205761151f6114ad565b5b600061152e848285016114f5565b91505092915050565b60008115159050919050565b61154c81611537565b82525050565b60006020820190506115676000830184611543565b92915050565b600081519050919050565b600082825260208201905092915050565b60005b838110156115a757808201518184015260208101905061158c565b60008484015250505050565b6000601f19601f8301169050919050565b60006115cf8261156d565b6115d98185611578565b93506115e9818560208601611589565b6115f2816115b3565b840191505092915050565b6000602082019050818103600083015261161781846115c4565b905092915050565b600073ffffffffffffffffffffffffffffffffffffffff82169050919050565b600061164a8261161f565b9050919050565b61165a8161163f565b811461166557600080fd5b50565b60008135905061167781611651565b92915050565b6000819050919050565b6116908161167d565b811461169b57600080fd5b50565b6000813590506116ad81611687565b92915050565b600080604083850312156116ca576116c96114ad565b5b60006116d885828601611668565b92505060206116e98582860161169e565b9150509250929050565b6116fc8161167d565b82525050565b600060208201905061171760008301846116f3565b92915050565b600080600060608486031215611736576117356114ad565b5b600061174486828701611668565b935050602061175586828701611668565b92505060406117668682870161169e565b9150509250925092565b6000819050919050565b61178381611770565b811461178e57600080fd5b50565b6000813590506117a08161177a565b92915050565b6000602082840312156117bc576117bb6114ad565b5b60006117ca84828501611791565b91505092915050565b6117dc81611770565b82525050565b60006020820190506117f760008301846117d3565b92915050565b60008060408385031215611814576118136114ad565b5b600061182285828601611791565b925050602061183385828601611668565b9150509250929050565b600060ff82169050919050565b6118538161183d565b82525050565b600060208201905061186e600083018461184a565b92915050565b60006020828403121561188a576118896114ad565b5b600061189884828501611668565b91505092915050565b6000602082840312156118b7576118b66114ad565b5b60006118c58482850161169e565b91505092915050565b600080604083850312156118e5576118e46114ad565b5b60006118f385828601611668565b925050602061190485828601611668565b9150509250929050565b7f4e487b7100000000000000000000000000000000000000000000000000000000600052602260045260246000fd5b6000600282049050600182168061195557607f821691505b6020821081036119685761196761190e565b5b50919050565b7f416363657373436f6e74726f6c3a2063616e206f6e6c792072656e6f756e636560008201527f20726f6c657320666f722073656c660000000000000000000000000000000000602082015250565b60006119ca602f83611578565b91506119d58261196e565b604082019050919050565b600060208201905081810360008301526119f9816119bd565b9050919050565b7f4e487b7100000000000000000000000000000000000000000000000000000000600052601160045260246000fd5b6000611a3a8261167d565b9150611a458361167d565b9250828201905080821115611a5d57611a5c611a00565b5b92915050565b60008160011c9050919050565b6000808291508390505b6001851115611aba57808604811115611a9657611a95611a00565b5b6001851615611aa55780820291505b8081029050611ab385611a63565b9450611a7a565b94509492505050565b600082611ad35760019050611b8f565b81611ae15760009050611b8f565b8160018114611af75760028114611b0157611b30565b6001915050611b8f565b60ff841115611b1357611b12611a00565b5b8360020a915084821115611b2a57611b29611a00565b5b50611b8f565b5060208310610133831016604e8410600b8410161715611b655782820a905083811115611b6057611b5f611a00565b5b611b8f565b611b728484846001611a70565b92509050818404811115611b8957611b88611a00565b5b81810290505b9392505050565b6000611ba18261167d565b9150611bac8361167d565b9250611bd97fffffffffffffffffffffffffffffffffffffffffffffffffffffffffffffffff8484611ac3565b905092915050565b6000611bec8261167d565b9150611bf78361167d565b9250828202611c058161167d565b91508282048414831517611c1c57611c1b611a00565b5b5092915050565b7f45524332303a2064656372656173656420616c6c6f77616e63652062656c6f7760008201527f207a65726f000000000000000000000000000000000000000000000000000000602082015250565b6000611c7f602583611578565b9150611c8a82611c23565b604082019050919050565b60006020820190508181036000830152611cae81611c72565b9050919050565b7f45524332303a20617070726f76652066726f6d20746865207a65726f2061646460008201527f7265737300000000000000000000000000000000000000000000000000000000602082015250565b6000611d11602483611578565b9150611d1c82611cb5565b604082019050919050565b60006020820190508181036000830152611d4081611d04565b9050919050565b7f45524332303a20617070726f766520746f20746865207a65726f20616464726560008201527f7373000000000000000000000000000000000000000000000000000000000000602082015250565b6000611da3602283611578565b9150611dae82611d47565b604082019050919050565b60006020820190508181036000830152611dd281611d96565b9050919050565b7f45524332303a20696e73756666696369656e7420616c6c6f77616e6365000000600082015250565b6000611e0f601d83611578565b9150611e1a82611dd9565b602082019050919050565b60006020820190508181036000830152611e3e81611e02565b9050919050565b7f45524332303a207472616e736665722066726f6d20746865207a65726f20616460008201527f6472657373000000000000000000000000000000000000000000000000000000602082015250565b6000611ea1602583611578565b9150611eac82611e45565b604082019050919050565b60006020820190508181036000830152611ed081611e94565b9050919050565b7f45524332303a207472616e7366657220746f20746865207a65726f206164647260008201527f6573730000000000000000000000000000000000000000000000000000000000602082015250565b6000611f33602383611578565b9150611f3e82611ed7565b604082019050919050565b60006020820190508181036000830152611f6281611f26565b9050919050565b7f45524332303a207472616e7366657220616d6f756e742065786365656473206260008201527f616c616e63650000000000000000000000000000000000000000000000000000602082015250565b6000611fc5602683611578565b9150611fd082611f69565b604082019050919050565b60006020820190508181036000830152611ff481611fb8565b9050919050565b7f45524332303a206d696e7420746f20746865207a65726f206164647265737300600082015250565b6000612031601f83611578565b915061203c82611ffb565b602082019050919050565b6000602082019050818103600083015261206081612024565b9050919050565b600081905092915050565b7f416363657373436f6e74726f6c3a206163636f756e7420000000000000000000600082015250565b60006120a8601783612067565b91506120b382612072565b601782019050919050565b60006120c98261156d565b6120d38185612067565b93506120e3818560208601611589565b80840191505092915050565b7f206973206d697373696e6720726f6c6520000000000000000000000000000000600082015250565b6000612125601183612067565b9150612130826120ef565b601182019050919050565b60006121468261209b565b915061215282856120be565b915061215d82612118565b915061216982846120be565b91508190509392505050565b7f4e487b7100000000000000000000000000000000000000000000000000000000600052604160045260246000fd5b7f4e487b7100000000000000000000000000000000000000000000000000000000600052603260045260246000fd5b60006121de8261167d565b9150600082036121f1576121f0611a00565b5b600182039050919050565b7f537472696e67733a20686578206c656e67746820696e73756666696369656e74600082015250565b6000612232602083611578565b915061223d826121fc565b602082019050919050565b6000602082019050818103600083015261226181612225565b905091905056fea2646970667358221220391a5571eb3ef688c4caac4491ebe6929555fac6ef4d82c91ea2a02430dc21fc64736f6c63430008110033",
  "linkReferences": {},
  "deployedLinkReferences": {}
}