{
  "_format": "hh-sol-artifact-1",
  "contractName": "REP",
  "sourceName": "contracts/REP.sol",
  "abi": [
    {
      "inputs": [
        {
          "internalType": "address",
          "name": "multiSig",
          "type": "address"
        },
        {
          "internalType": "uint256",
          "name": "initialMultisigSupply",
          "type": "uint256"
        }
      ],
      "stateMutability": "nonpayable",
      "type": "constructor"
    },
    {
      "anonymous": false,
      "inputs": [
        {
          "indexed": true,
          "internalType": "address",
          "name": "owner",
          "type": "address"
        },
        {
          "indexed": true,
          "internalType": "address",
          "name": "spender",
          "type": "address"
        },
        {
          "indexed": false,
          "internalType": "uint256",
          "name": "value",
          "type": "uint256"
        }
      ],
      "name": "Approval",
      "type": "event"
    },
    {
      "anonymous": false,
      "inputs": [
        {
          "indexed": true,
          "internalType": "bytes32",
          "name": "role",
          "type": "bytes32"
        },
        {
          "indexed": true,
          "internalType": "bytes32",
          "name": "previousAdminRole",
          "type": "bytes32"
        },
        {
          "indexed": true,
          "internalType": "bytes32",
          "name": "newAdminRole",
          "type": "bytes32"
        }
      ],
      "name": "RoleAdminChanged",
      "type": "event"
    },
    {
      "anonymous": false,
      "inputs": [
        {
          "indexed": true,
          "internalType": "bytes32",
          "name": "role",
          "type": "bytes32"
        },
        {
          "indexed": true,
          "internalType": "address",
          "name": "account",
          "type": "address"
        },
        {
          "indexed": true,
          "internalType": "address",
          "name": "sender",
          "type": "address"
        }
      ],
      "name": "RoleGranted",
      "type": "event"
    },
    {
      "anonymous": false,
      "inputs": [
        {
          "indexed": true,
          "internalType": "bytes32",
          "name": "role",
          "type": "bytes32"
        },
        {
          "indexed": true,
          "internalType": "address",
          "name": "account",
          "type": "address"
        },
        {
          "indexed": true,
          "internalType": "address",
          "name": "sender",
          "type": "address"
        }
      ],
      "name": "RoleRevoked",
      "type": "event"
    },
    {
      "anonymous": false,
      "inputs": [
        {
          "indexed": true,
          "internalType": "address",
          "name": "from",
          "type": "address"
        },
        {
          "indexed": true,
          "internalType": "address",
          "name": "to",
          "type": "address"
        },
        {
          "indexed": false,
          "internalType": "uint256",
          "name": "value",
          "type": "uint256"
        }
      ],
      "name": "Transfer",
      "type": "event"
    },
    {
      "inputs": [],
      "name": "DEFAULT_ADMIN_ROLE",
      "outputs": [
        {
          "internalType": "bytes32",
          "name": "",
          "type": "bytes32"
        }
      ],
      "stateMutability": "view",
      "type": "function"
    },
    {
      "inputs": [],
      "name": "MULTISIG_ROLE",
      "outputs": [
        {
          "internalType": "bytes32",
          "name": "",
          "type": "bytes32"
        }
      ],
      "stateMutability": "view",
      "type": "function"
    },
    {
      "inputs": [
        {
          "internalType": "address",
          "name": "addr",
          "type": "address"
        }
      ],
      "name": "addToAllowList",
      "outputs": [],
      "stateMutability": "nonpayable",
      "type": "function"
    },
    {
      "inputs": [
        {
          "internalType": "address",
          "name": "owner",
          "type": "address"
        },
        {
          "internalType": "address",
          "name": "spender",
          "type": "address"
        }
      ],
      "name": "allowance",
      "outputs": [
        {
          "internalType": "uint256",
          "name": "",
          "type": "uint256"
        }
      ],
      "stateMutability": "view",
      "type": "function"
    },
    {
      "inputs": [
        {
          "internalType": "address",
          "name": "spender",
          "type": "address"
        },
        {
          "internalType": "uint256",
          "name": "amount",
          "type": "uint256"
        }
      ],
      "name": "approve",
      "outputs": [
        {
          "internalType": "bool",
          "name": "",
          "type": "bool"
        }
      ],
      "stateMutability": "nonpayable",
      "type": "function"
    },
    {
      "inputs": [
        {
          "internalType": "address",
          "name": "account",
          "type": "address"
        }
      ],
      "name": "balanceOf",
      "outputs": [
        {
          "internalType": "uint256",
          "name": "",
          "type": "uint256"
        }
      ],
      "stateMutability": "view",
      "type": "function"
    },
    {
      "inputs": [],
      "name": "decimals",
      "outputs": [
        {
          "internalType": "uint8",
          "name": "",
          "type": "uint8"
        }
      ],
      "stateMutability": "view",
      "type": "function"
    },
    {
      "inputs": [
        {
          "internalType": "address",
          "name": "spender",
          "type": "address"
        },
        {
          "internalType": "uint256",
          "name": "subtractedValue",
          "type": "uint256"
        }
      ],
      "name": "decreaseAllowance",
      "outputs": [
        {
          "internalType": "bool",
          "name": "",
          "type": "bool"
        }
      ],
      "stateMutability": "nonpayable",
      "type": "function"
    },
    {
      "inputs": [
        {
          "internalType": "bytes32",
          "name": "role",
          "type": "bytes32"
        }
      ],
      "name": "getRoleAdmin",
      "outputs": [
        {
          "internalType": "bytes32",
          "name": "",
          "type": "bytes32"
        }
      ],
      "stateMutability": "view",
      "type": "function"
    },
    {
      "inputs": [
        {
          "internalType": "bytes32",
          "name": "role",
          "type": "bytes32"
        },
        {
          "internalType": "address",
          "name": "account",
          "type": "address"
        }
      ],
      "name": "grantRole",
      "outputs": [],
      "stateMutability": "nonpayable",
      "type": "function"
    },
    {
      "inputs": [
        {
          "internalType": "bytes32",
          "name": "role",
          "type": "bytes32"
        },
        {
          "internalType": "address",
          "name": "account",
          "type": "address"
        }
      ],
      "name": "hasRole",
      "outputs": [
        {
          "internalType": "bool",
          "name": "",
          "type": "bool"
        }
      ],
      "stateMutability": "view",
      "type": "function"
    },
    {
      "inputs": [
        {
          "internalType": "address",
          "name": "spender",
          "type": "address"
        },
        {
          "internalType": "uint256",
          "name": "addedValue",
          "type": "uint256"
        }
      ],
      "name": "increaseAllowance",
      "outputs": [
        {
          "internalType": "bool",
          "name": "",
          "type": "bool"
        }
      ],
      "stateMutability": "nonpayable",
      "type": "function"
    },
    {
      "inputs": [
        {
          "internalType": "uint256",
          "name": "numOfTokens",
          "type": "uint256"
        }
      ],
      "name": "multiSigMintToSelf",
      "outputs": [],
      "stateMutability": "nonpayable",
      "type": "function"
    },
    {
      "inputs": [],
      "name": "name",
      "outputs": [
        {
          "internalType": "string",
          "name": "",
          "type": "string"
        }
      ],
      "stateMutability": "view",
      "type": "function"
    },
    {
      "inputs": [
        {
          "internalType": "bytes32",
          "name": "role",
          "type": "bytes32"
        },
        {
          "internalType": "address",
          "name": "account",
          "type": "address"
        }
      ],
      "name": "renounceRole",
      "outputs": [],
      "stateMutability": "nonpayable",
      "type": "function"
    },
    {
      "inputs": [
        {
          "internalType": "bytes32",
          "name": "role",
          "type": "bytes32"
        },
        {
          "internalType": "address",
          "name": "account",
          "type": "address"
        }
      ],
      "name": "revokeRole",
      "outputs": [],
      "stateMutability": "nonpayable",
      "type": "function"
    },
    {
      "inputs": [
        {
          "internalType": "bytes4",
          "name": "interfaceId",
          "type": "bytes4"
        }
      ],
      "name": "supportsInterface",
      "outputs": [
        {
          "internalType": "bool",
          "name": "",
          "type": "bool"
        }
      ],
      "stateMutability": "view",
      "type": "function"
    },
    {
      "inputs": [],
      "name": "symbol",
      "outputs": [
        {
          "internalType": "string",
          "name": "",
          "type": "string"
        }
      ],
      "stateMutability": "view",
      "type": "function"
    },
    {
      "inputs": [],
      "name": "totalSupply",
      "outputs": [
        {
          "internalType": "uint256",
          "name": "",
          "type": "uint256"
        }
      ],
      "stateMutability": "view",
      "type": "function"
    },
    {
      "inputs": [
        {
          "internalType": "address",
          "name": "to",
          "type": "address"
        },
        {
          "internalType": "uint256",
          "name": "amount",
          "type": "uint256"
        }
      ],
      "name": "transfer",
      "outputs": [
        {
          "internalType": "bool",
          "name": "",
          "type": "bool"
        }
      ],
      "stateMutability": "nonpayable",
      "type": "function"
    },
    {
      "inputs": [
        {
          "internalType": "address",
          "name": "sender",
          "type": "address"
        },
        {
          "internalType": "address",
          "name": "recipient",
          "type": "address"
        },
        {
          "internalType": "uint256",
          "name": "amount",
          "type": "uint256"
        }
      ],
      "name": "transferFrom",
      "outputs": [
        {
          "internalType": "bool",
          "name": "",
          "type": "bool"
        }
      ],
      "stateMutability": "nonpayable",
      "type": "function"
    }
  ],
  "bytecode": "0x60806040523480156200001157600080fd5b506040516200192338038062001923833981016040819052620000349162000381565b604051806040016040528060088152602001672932b82a37b5b2b760c11b8152506040518060400160405280600381526020016205265760ec1b815250816003908051906020019062000089929190620002db565b5080516200009f906004906020840190620002db565b5050600680546001600160a01b0319166001600160a01b03851617905550620000e97fa5a0b70b385ff7611cd3840916bd08b10829e5bf9e6637cf79dd9a427fc0e2ab83620000fd565b620000f582826200010d565b505062000562565b6200010982826200013c565b5050565b60006200011d6012600a620004d0565b620001299083620004e8565b9050620001378382620001c6565b505050565b620001488282620002ae565b620001095760008281526005602090815260408083206001600160a01b03851684529091529020805460ff19166001179055620001823390565b6001600160a01b0316816001600160a01b0316837f2f8788117e7eff1d82e926ec794901d17c78024a50270940304540a733656f0d60405160405180910390a45050565b6001600160a01b038216620002215760405162461bcd60e51b815260206004820152601f60248201527f45524332303a206d696e7420746f20746865207a65726f206164647265737300604482015260640160405180910390fd5b80600260008282546200023591906200050a565b90915550506001600160a01b03821660009081526020819052604081208054839290620002649084906200050a565b90915550506040518181526001600160a01b038316906000907fddf252ad1be2c89b69c2b068fc378daa952ba7f163c4a11628f55a4df523b3ef9060200160405180910390a35050565b60008281526005602090815260408083206001600160a01b038516845290915290205460ff165b92915050565b828054620002e99062000525565b90600052602060002090601f0160209004810192826200030d576000855562000358565b82601f106200032857805160ff191683800117855562000358565b8280016001018555821562000358579182015b82811115620003585782518255916020019190600101906200033b565b50620003669291506200036a565b5090565b5b808211156200036657600081556001016200036b565b600080604083850312156200039557600080fd5b82516001600160a01b0381168114620003ad57600080fd5b6020939093015192949293505050565b634e487b7160e01b600052601160045260246000fd5b600181815b8085111562000414578160001904821115620003f857620003f8620003bd565b808516156200040657918102915b93841c9390800290620003d8565b509250929050565b6000826200042d57506001620002d5565b816200043c57506000620002d5565b8160018114620004555760028114620004605762000480565b6001915050620002d5565b60ff841115620004745762000474620003bd565b50506001821b620002d5565b5060208310610133831016604e8410600b8410161715620004a5575081810a620002d5565b620004b18383620003d3565b8060001904821115620004c857620004c8620003bd565b029392505050565b6000620004e160ff8416836200041c565b9392505050565b6000816000190483118215151615620005055762000505620003bd565b500290565b60008219821115620005205762000520620003bd565b500190565b600181811c908216806200053a57607f821691505b602082108114156200055c57634e487b7160e01b600052602260045260246000fd5b50919050565b6113b180620005726000396000f3fe608060405234801561001057600080fd5b50600436106101375760003560e01c806339509351116100b8578063a457c2d71161007c578063a457c2d71461027d578063a9059cbb14610290578063d547741f146102a3578063dd62ed3e146102b6578063e328400c146102ef578063ede7fd3d1461031657600080fd5b8063395093511461021e57806370a082311461023157806391d148541461025a57806395d89b411461026d578063a217fddf1461027557600080fd5b8063248a9ca3116100ff578063248a9ca3146101b15780632f2ff15d146101d4578063313ce567146101e957806331f59102146101f857806336568abe1461020b57600080fd5b806301ffc9a71461013c57806306fdde0314610164578063095ea7b31461017957806318160ddd1461018c57806323b872dd1461019e575b600080fd5b61014f61014a366004610f98565b610329565b60405190151581526020015b60405180910390f35b61016c610360565b60405161015b9190610fee565b61014f61018736600461103d565b6103f2565b6002545b60405190815260200161015b565b61014f6101ac366004611067565b610408565b6101906101bf3660046110a3565b60009081526005602052604090206001015490565b6101e76101e23660046110bc565b6104b7565b005b6040516012815260200161015b565b6101e76102063660046110e8565b6104e2565b6101e76102193660046110bc565b6105c5565b61014f61022c36600461103d565b610643565b61019061023f3660046110e8565b6001600160a01b031660009081526020819052604090205490565b61014f6102683660046110bc565b61067f565b61016c6106aa565b610190600081565b61014f61028b36600461103d565b6106b9565b61014f61029e36600461103d565b610752565b6101e76102b13660046110bc565b610852565b6101906102c4366004611103565b6001600160a01b03918216600090815260016020908152604080832093909416825291909152205490565b6101907fa5a0b70b385ff7611cd3840916bd08b10829e5bf9e6637cf79dd9a427fc0e2ab81565b6101e76103243660046110a3565b610878565b60006001600160e01b03198216637965db0b60e01b148061035a57506301ffc9a760e01b6001600160e01b03198316145b92915050565b60606003805461036f9061112d565b80601f016020809104026020016040519081016040528092919081815260200182805461039b9061112d565b80156103e85780601f106103bd576101008083540402835291602001916103e8565b820191906000526020600020905b8154815290600101906020018083116103cb57829003601f168201915b5050505050905090565b60006103ff3384846108ad565b50600192915050565b60006104158484846109d1565b6001600160a01b03841660009081526001602090815260408083203384529091529020548281101561049f5760405162461bcd60e51b815260206004820152602860248201527f45524332303a207472616e7366657220616d6f756e74206578636565647320616044820152676c6c6f77616e636560c01b60648201526084015b60405180910390fd5b6104ac85338584036108ad565b506001949350505050565b6000828152600560205260409020600101546104d38133610ba1565b6104dd8383610c05565b505050565b7fa5a0b70b385ff7611cd3840916bd08b10829e5bf9e6637cf79dd9a427fc0e2ab61050d8133610ba1565b813b6105725760405162461bcd60e51b815260206004820152602e60248201527f5468652070617373656420696e2061646472657373206973206e6f742061207360448201526d6d61727420636f6e74726163742160901b6064820152608401610496565b50600780546001810182556000919091527fa66cc928b5edb82af9bd49922954155ab7b0942694bea4ce44661d9a8736c6880180546001600160a01b0319166001600160a01b0392909216919091179055565b6001600160a01b03811633146106355760405162461bcd60e51b815260206004820152602f60248201527f416363657373436f6e74726f6c3a2063616e206f6e6c792072656e6f756e636560448201526e103937b632b9903337b91039b2b63360891b6064820152608401610496565b61063f8282610c8b565b5050565b3360008181526001602090815260408083206001600160a01b038716845290915281205490916103ff91859061067a90869061117e565b6108ad565b60009182526005602090815260408084206001600160a01b0393909316845291905290205460ff1690565b60606004805461036f9061112d565b3360009081526001602090815260408083206001600160a01b03861684529091528120548281101561073b5760405162461bcd60e51b815260206004820152602560248201527f45524332303a2064656372656173656420616c6c6f77616e63652062656c6f77604482015264207a65726f60d81b6064820152608401610496565b61074833858584036108ad565b5060019392505050565b6006546000906001600160a01b03163314610846576000805b6007548110156107bf576007818154811061078857610788611196565b6000918252602090912001546001600160a01b03163314156107ad57600191506107bf565b806107b7816111ac565b91505061076b565b5080156107cb57610844565b6006546001600160a01b038581169116146108445760405162461bcd60e51b815260206004820152603360248201527f596f752063616e206f6e6c792073656e642052455020746f6b656e73206261636044820152726b20746f20746865206d756c74692d7369672160681b6064820152608401610496565b505b336107488185856109d1565b60008281526005602052604090206001015461086e8133610ba1565b6104dd8383610c8b565b7fa5a0b70b385ff7611cd3840916bd08b10829e5bf9e6637cf79dd9a427fc0e2ab6108a38133610ba1565b61063f3383610cf2565b6001600160a01b03831661090f5760405162461bcd60e51b8152602060048201526024808201527f45524332303a20617070726f76652066726f6d20746865207a65726f206164646044820152637265737360e01b6064820152608401610496565b6001600160a01b0382166109705760405162461bcd60e51b815260206004820152602260248201527f45524332303a20617070726f766520746f20746865207a65726f206164647265604482015261737360f01b6064820152608401610496565b6001600160a01b0383811660008181526001602090815260408083209487168084529482529182902085905590518481527f8c5be1e5ebec7d5bd14f71427d1e84f3dd0314c0f7b2291e5b200ac8c7c3b925910160405180910390a3505050565b6001600160a01b038316610a355760405162461bcd60e51b815260206004820152602560248201527f45524332303a207472616e736665722066726f6d20746865207a65726f206164604482015264647265737360d81b6064820152608401610496565b6001600160a01b038216610a975760405162461bcd60e51b815260206004820152602360248201527f45524332303a207472616e7366657220746f20746865207a65726f206164647260448201526265737360e81b6064820152608401610496565b6001600160a01b03831660009081526020819052604090205481811015610b0f5760405162461bcd60e51b815260206004820152602660248201527f45524332303a207472616e7366657220616d6f756e7420657863656564732062604482015265616c616e636560d01b6064820152608401610496565b6001600160a01b03808516600090815260208190526040808220858503905591851681529081208054849290610b4690849061117e565b92505081905550826001600160a01b0316846001600160a01b03167fddf252ad1be2c89b69c2b068fc378daa952ba7f163c4a11628f55a4df523b3ef84604051610b9291815260200190565b60405180910390a35b50505050565b610bab828261067f565b61063f57610bc3816001600160a01b03166014610d16565b610bce836020610d16565b604051602001610bdf9291906111c7565b60408051601f198184030181529082905262461bcd60e51b825261049691600401610fee565b610c0f828261067f565b61063f5760008281526005602090815260408083206001600160a01b03851684529091529020805460ff19166001179055610c473390565b6001600160a01b0316816001600160a01b0316837f2f8788117e7eff1d82e926ec794901d17c78024a50270940304540a733656f0d60405160405180910390a45050565b610c95828261067f565b1561063f5760008281526005602090815260408083206001600160a01b0385168085529252808320805460ff1916905551339285917ff6391f5c32d9c69d2a47ea670b442974b53935d1edc7fd64eb21e047a839171b9190a45050565b6000610d006012600a611320565b610d0a908361132f565b90506104dd8382610eb9565b60606000610d2583600261132f565b610d3090600261117e565b67ffffffffffffffff811115610d4857610d4861134e565b6040519080825280601f01601f191660200182016040528015610d72576020820181803683370190505b509050600360fc1b81600081518110610d8d57610d8d611196565b60200101906001600160f81b031916908160001a905350600f60fb1b81600181518110610dbc57610dbc611196565b60200101906001600160f81b031916908160001a9053506000610de084600261132f565b610deb90600161117e565b90505b6001811115610e63576f181899199a1a9b1b9c1cb0b131b232b360811b85600f1660108110610e1f57610e1f611196565b1a60f81b828281518110610e3557610e35611196565b60200101906001600160f81b031916908160001a90535060049490941c93610e5c81611364565b9050610dee565b508315610eb25760405162461bcd60e51b815260206004820181905260248201527f537472696e67733a20686578206c656e67746820696e73756666696369656e746044820152606401610496565b9392505050565b6001600160a01b038216610f0f5760405162461bcd60e51b815260206004820152601f60248201527f45524332303a206d696e7420746f20746865207a65726f2061646472657373006044820152606401610496565b8060026000828254610f21919061117e565b90915550506001600160a01b03821660009081526020819052604081208054839290610f4e90849061117e565b90915550506040518181526001600160a01b038316906000907fddf252ad1be2c89b69c2b068fc378daa952ba7f163c4a11628f55a4df523b3ef9060200160405180910390a35050565b600060208284031215610faa57600080fd5b81356001600160e01b031981168114610eb257600080fd5b60005b83811015610fdd578181015183820152602001610fc5565b83811115610b9b5750506000910152565b602081526000825180602084015261100d816040850160208701610fc2565b601f01601f19169190910160400192915050565b80356001600160a01b038116811461103857600080fd5b919050565b6000806040838503121561105057600080fd5b61105983611021565b946020939093013593505050565b60008060006060848603121561107c57600080fd5b61108584611021565b925061109360208501611021565b9150604084013590509250925092565b6000602082840312156110b557600080fd5b5035919050565b600080604083850312156110cf57600080fd5b823591506110df60208401611021565b90509250929050565b6000602082840312156110fa57600080fd5b610eb282611021565b6000806040838503121561111657600080fd5b61111f83611021565b91506110df60208401611021565b600181811c9082168061114157607f821691505b6020821081141561116257634e487b7160e01b600052602260045260246000fd5b50919050565b634e487b7160e01b600052601160045260246000fd5b6000821982111561119157611191611168565b500190565b634e487b7160e01b600052603260045260246000fd5b60006000198214156111c0576111c0611168565b5060010190565b7f416363657373436f6e74726f6c3a206163636f756e74200000000000000000008152600083516111ff816017850160208801610fc2565b7001034b99036b4b9b9b4b733903937b6329607d1b6017918401918201528351611230816028840160208801610fc2565b01602801949350505050565b600181815b8085111561127757816000190482111561125d5761125d611168565b8085161561126a57918102915b93841c9390800290611241565b509250929050565b60008261128e5750600161035a565b8161129b5750600061035a565b81600181146112b157600281146112bb576112d7565b600191505061035a565b60ff8411156112cc576112cc611168565b50506001821b61035a565b5060208310610133831016604e8410600b84101617156112fa575081810a61035a565b611304838361123c565b806000190482111561131857611318611168565b029392505050565b6000610eb260ff84168361127f565b600081600019048311821515161561134957611349611168565b500290565b634e487b7160e01b600052604160045260246000fd5b60008161137357611373611168565b50600019019056fea26469706673582212204e868ed0582bec64ba2cbb8f60ef6514d224269864ee1e8a7cec07d305aeb13964736f6c63430008090033",
  "linkReferences": {},
  "deployedLinkReferences": {}
}